{
  "transactions": [
    {
      "hash": "0x37ec52fbb97d4ef3b447f64301734ecbf612a51620861be9ee1d8ee0a934d16d",
      "transactionType": "CALL",
      "contractName": null,
      "contractAddress": "0x661323fea336cd5222d836ad77623cd5227831ed",
      "function": "registerAsset(string)",
      "arguments": [
        "My Ikoyi Apartment"
      ],
      "transaction": {
        "from": "0x3f9f3ef80cc1a53ba77a00b5ee66262ed2fea72d",
        "to": "0x661323fea336cd5222d836ad77623cd5227831ed",
        "gas": "0x379a6",
        "value": "0x0",
        "input": "0x1ec04081000000000000000000000000000000000000000000000000000000000000002000000000000000000000000000000000000000000000000000000000000000124d7920496b6f79692041706172746d656e740000000000000000000000000000",
        "nonce": "0xca",
        "chainId": "0xaa36a7"
      },
      "additionalContracts": [],
      "isFixedGasLimit": false
    },
    {
      "hash": "0x297d0d01263822bf0ca20a575d4b74c27ea5d82d6fc2986eca3e6043af92835e",
      "transactionType": "CALL",
      "contractName": null,
      "contractAddress": "0x661323fea336cd5222d836ad77623cd5227831ed",
      "function": "registerAsset(string)",
      "arguments": [
        "Tesla Model S Electric Vehicle"
      ],
      "transaction": {
        "from": "0x3f9f3ef80cc1a53ba77a00b5ee66262ed2fea72d",
        "to": "0x661323fea336cd5222d836ad77623cd5227831ed",
        "gas": "0x31e2a",
        "value": "0x0",
        "input": "0x1ec040810000000000000000000000000000000000000000000000000000000000000020000000000000000000000000000000000000000000000000000000000000001e5465736c61204d6f64656c205320456c6563747269632056656869636c650000",
        "nonce": "0xcb",
        "chainId": "0xaa36a7"
      },
      "additionalContracts": [],
      "isFixedGasLimit": false
    },
    {
      "hash": "0x54203ade7ed97c62cca90bb586ed1ce3b77f61317ea64fa7e606a8095ee3855d",
      "transactionType": "CALL",
      "contractName": null,
      "contractAddress": "0x661323fea336cd5222d836ad77623cd5227831ed",
      "function": "registerAsset(string)",
      "arguments": [
        "Rare Diamond Collection"
      ],
      "transaction": {
        "from": "0x3f9f3ef80cc1a53ba77a00b5ee66262ed2fea72d",
        "to": "0x661323fea336cd5222d836ad77623cd5227831ed",
        "gas": "0x31db6",
        "value": "0x0",
        "input": "0x1ec040810000000000000000000000000000000000000000000000000000000000000020000000000000000000000000000000000000000000000000000000000000001752617265204469616d6f6e6420436f6c6c656374696f6e000000000000000000",
        "nonce": "0xcc",
        "chainId": "0xaa36a7"
      },
      "additionalContracts": [],
      "isFixedGasLimit": false
    }
  ],
  "receipts": [
    {
      "status": "0x1",
      "cumulativeGasUsed": "0x9dc602",
      "logs": [
        {
          "address": "0x661323fea336cd5222d836ad77623cd5227831ed",
          "topics": [
            "0x17bfbb947caca86ac77ea06397ced8c4f77a1a6c82a21b5a05a738ceddc1f660",
            "0x0000000000000000000000000000000000000000000000000000000000000001",
            "0x0000000000000000000000003f9f3ef80cc1a53ba77a00b5ee66262ed2fea72d"
          ],
          "data": "0x00000000000000000000000000000000000000000000000000000000000000400000000000000000000000000000000000000000000000000000000068a3b89800000000000000000000000000000000000000000000000000000000000000124d7920496b6f79692041706172746d656e740000000000000000000000000000",
          "blockHash": "0xea7ce3a972d9618604ff2d2489d1df0aef0377270f7e7547f230d0d9bfb96f9e",
          "blockNumber": "0x898c79",
          "transactionHash": "0x37ec52fbb97d4ef3b447f64301734ecbf612a51620861be9ee1d8ee0a934d16d",
          "transactionIndex": "0x47",
          "logIndex": "0x74",
          "removed": false
        }
      ],
      "logsBloom": "0x00000200000000000000000000002000000000000000000000000000000000000000400000008000000000000000000000000000000000000000000000040000000000000000000000000000000000000000000000040000000000000000000000000000004000000000000000000000000000000000000000000000000000008000000000000000000000000000000000000000000000000000000000000000000000000000000000000400000000000000000000000000000000000000000000000000000800000000800000000000000000000000000000000000000040000000000000000000000000000000000000000000000000000000000000000000",
      "type": "0x2",
      "transactionHash": "0x37ec52fbb97d4ef3b447f64301734ecbf612a51620861be9ee1d8ee0a934d16d",
      "transactionIndex": "0x47",
      "blockHash": "0xea7ce3a972d9618604ff2d2489d1df0aef0377270f7e7547f230d0d9bfb96f9e",
      "blockNumber": "0x898c79",
      "gasUsed": "0x28418",
      "effectiveGasPrice": "0x2c2930",
      "from": "0x3f9f3ef80cc1a53ba77a00b5ee66262ed2fea72d",
      "to": "0x661323fea336cd5222d836ad77623cd5227831ed",
      "contractAddress": null
    },
    {
      "status": "0x1",
      "cumulativeGasUsed": "0xa007de",
      "logs": [
        {
          "address": "0x661323fea336cd5222d836ad77623cd5227831ed",
          "topics": [
            "0x17bfbb947caca86ac77ea06397ced8c4f77a1a6c82a21b5a05a738ceddc1f660",
            "0x0000000000000000000000000000000000000000000000000000000000000002",
            "0x0000000000000000000000003f9f3ef80cc1a53ba77a00b5ee66262ed2fea72d"
          ],
          "data": "0x00000000000000000000000000000000000000000000000000000000000000400000000000000000000000000000000000000000000000000000000068a3b898000000000000000000000000000000000000000000000000000000000000001e5465736c61204d6f64656c205320456c6563747269632056656869636c650000",
          "blockHash": "0xea7ce3a972d9618604ff2d2489d1df0aef0377270f7e7547f230d0d9bfb96f9e",
          "blockNumber": "0x898c79",
          "transactionHash": "0x297d0d01263822bf0ca20a575d4b74c27ea5d82d6fc2986eca3e6043af92835e",
          "transactionIndex": "0x48",
          "logIndex": "0x75",
          "removed": false
        }
      ],
      "logsBloom": "0x04000200000000000000000000002000000000000000000000000000000000000000400000008000000000000000000000000000000000000000000000000000000000000000000000000000000000000000000000000000000000000000000000000000004000000000000000000000000000000000000000000000000000008000000000000000000000000000000000000000000000000000000000000000000000000000000000000500000000000000000000000000000000000000000000000000000800000000800000000000000000000000000000000000000000000000000000000000000000000000000000000000008000000000000000000000",
      "type": "0x2",
      "transactionHash": "0x297d0d01263822bf0ca20a575d4b74c27ea5d82d6fc2986eca3e6043af92835e",
      "transactionIndex": "0x48",
      "blockHash": "0xea7ce3a972d9618604ff2d2489d1df0aef0377270f7e7547f230d0d9bfb96f9e",
      "blockNumber": "0x898c79",
      "gasUsed": "0x241dc",
      "effectiveGasPrice": "0x2c2930",
      "from": "0x3f9f3ef80cc1a53ba77a00b5ee66262ed2fea72d",
      "to": "0x661323fea336cd5222d836ad77623cd5227831ed",
      "contractAddress": null
    },
    {
      "status": "0x1",
      "cumulativeGasUsed": "0xa24966",
      "logs": [
        {
          "address": "0x661323fea336cd5222d836ad77623cd5227831ed",
          "topics": [
            "0x17bfbb947caca86ac77ea06397ced8c4f77a1a6c82a21b5a05a738ceddc1f660",
            "0x0000000000000000000000000000000000000000000000000000000000000003",
            "0x0000000000000000000000003f9f3ef80cc1a53ba77a00b5ee66262ed2fea72d"
          ],
          "data": "0x00000000000000000000000000000000000000000000000000000000000000400000000000000000000000000000000000000000000000000000000068a3b898000000000000000000000000000000000000000000000000000000000000001752617265204469616d6f6e6420436f6c6c656374696f6e000000000000000000",
          "blockHash": "0xea7ce3a972d9618604ff2d2489d1df0aef0377270f7e7547f230d0d9bfb96f9e",
          "blockNumber": "0x898c79",
          "transactionHash": "0x54203ade7ed97c62cca90bb586ed1ce3b77f61317ea64fa7e606a8095ee3855d",
          "transactionIndex": "0x49",
          "logIndex": "0x76",
          "removed": false
        }
      ],
      "logsBloom": "0x00000200000000000000000000002000000000000000000000000000000000000000400000008000000000000000000000000000020000000000000000000000000000000000000000000000000000000000000000000000000000000000000000000000004000000000000000000000000000000000000000000000000000008000000000000000000000000000000000000000000000000000000000000000000000000000000000000400000000000000000000800000000000000000400000000000000800000000800000000000000000000000000000000000000000000000000000000000000000000000000000000000000000000000000000000000",
      "type": "0x2",
      "transactionHash": "0x54203ade7ed97c62cca90bb586ed1ce3b77f61317ea64fa7e606a8095ee3855d",
      "transactionIndex": "0x49",
      "blockHash": "0xea7ce3a972d9618604ff2d2489d1df0aef0377270f7e7547f230d0d9bfb96f9e",
      "blockNumber": "0x898c79",
      "gasUsed": "0x24188",
      "effectiveGasPrice": "0x2c2930",
      "from": "0x3f9f3ef80cc1a53ba77a00b5ee66262ed2fea72d",
      "to": "0x661323fea336cd5222d836ad77623cd5227831ed",
      "contractAddress": null
    }
  ],
  "libraries": [],
  "pending": [],
  "returns": {},
  "timestamp": 1755560088,
  "chain": 11155111,
  "commit": null
}