{
  "transactions": [
    {
      "hash": "0x636a2aedb5801db616623f2907610b104255b318fcce9cfc11e178ded9e26012",
      "transactionType": "CALL",
      "contractName": null,
      "contractAddress": "0x6a2027682b9abfe77804a6941137af04b7d118e2",
      "function": "registerAsset(string)",
      "arguments": [
        "My Ikoyi Apartment"
      ],
      "transaction": {
        "from": "0x3f9f3ef80cc1a53ba77a00b5ee66262ed2fea72d",
        "to": "0x6a2027682b9abfe77804a6941137af04b7d118e2",
        "gas": "0x31d63",
        "value": "0x0",
        "input": "0x1ec04081000000000000000000000000000000000000000000000000000000000000002000000000000000000000000000000000000000000000000000000000000000124d7920496b6f79692041706172746d656e740000000000000000000000000000",
        "nonce": "0xc6",
        "chainId": "0xaa36a7"
      },
      "additionalContracts": [],
      "isFixedGasLimit": false
    },
    {
      "hash": "0xa4d39e217fd2fc95d3bfcee0088ecedd411570399581721191992d183f360f01",
      "transactionType": "CALL",
      "contractName": null,
      "contractAddress": "0x6a2027682b9abfe77804a6941137af04b7d118e2",
      "function": "registerAsset(string)",
      "arguments": [
        "Tesla Model S Electric Vehicle"
      ],
      "transaction": {
        "from": "0x3f9f3ef80cc1a53ba77a00b5ee66262ed2fea72d",
        "to": "0x6a2027682b9abfe77804a6941137af04b7d118e2",
        "gas": "0x31e2a",
        "value": "0x0",
        "input": "0x1ec040810000000000000000000000000000000000000000000000000000000000000020000000000000000000000000000000000000000000000000000000000000001e5465736c61204d6f64656c205320456c6563747269632056656869636c650000",
        "nonce": "0xc7",
        "chainId": "0xaa36a7"
      },
      "additionalContracts": [],
      "isFixedGasLimit": false
    },
    {
      "hash": "0x13d87b154732713f8191adb7ec7f3e641f6f28ae6156165fb9b9eca1c5aa0555",
      "transactionType": "CALL",
      "contractName": null,
      "contractAddress": "0x6a2027682b9abfe77804a6941137af04b7d118e2",
      "function": "registerAsset(string)",
      "arguments": [
        "Rare Diamond Collection"
      ],
      "transaction": {
        "from": "0x3f9f3ef80cc1a53ba77a00b5ee66262ed2fea72d",
        "to": "0x6a2027682b9abfe77804a6941137af04b7d118e2",
        "gas": "0x31db6",
        "value": "0x0",
        "input": "0x1ec040810000000000000000000000000000000000000000000000000000000000000020000000000000000000000000000000000000000000000000000000000000001752617265204469616d6f6e6420436f6c6c656374696f6e000000000000000000",
        "nonce": "0xc8",
        "chainId": "0xaa36a7"
      },
      "additionalContracts": [],
      "isFixedGasLimit": false
    }
  ],
  "receipts": [
    {
      "status": "0x1",
      "cumulativeGasUsed": "0x87803f",
      "logs": [
        {
          "address": "0x6a2027682b9abfe77804a6941137af04b7d118e2",
          "topics": [
            "0x17bfbb947caca86ac77ea06397ced8c4f77a1a6c82a21b5a05a738ceddc1f660",
            "0x0000000000000000000000000000000000000000000000000000000000000013",
            "0x0000000000000000000000003f9f3ef80cc1a53ba77a00b5ee66262ed2fea72d"
          ],
          "data": "0x00000000000000000000000000000000000000000000000000000000000000400000000000000000000000000000000000000000000000000000000068a3a1d000000000000000000000000000000000000000000000000000000000000000124d7920496b6f79692041706172746d656e740000000000000000000000000000",
          "blockHash": "0xb2194410355fbcba74ce81e370ad07c7580ca32f48cf85034ac84df583d1d0ba",
          "blockNumber": "0x898a94",
          "transactionHash": "0x636a2aedb5801db616623f2907610b104255b318fcce9cfc11e178ded9e26012",
          "transactionIndex": "0x48",
          "logIndex": "0x81",
          "removed": false
        }
      ],
      "logsBloom": "0x20000200000000000000000000802000000000000000000000000000000000000000400040008000000000000000000000000000000000000000000000000000000000000000000000000000000000000000000000100000000000000000000000000000000000000000000000000000000000000000000000000000000000008000000000000000000000000000000000000000000000000000000000000000000000000000000000000000000000000000000000000000000000000000000000000000000800000000000000000000000000000000000000000000004000000000000000000000000000000000000000000000000800000000000000000000",
      "type": "0x2",
      "transactionHash": "0x636a2aedb5801db616623f2907610b104255b318fcce9cfc11e178ded9e26012",
      "transactionIndex": "0x48",
      "blockHash": "0xb2194410355fbcba74ce81e370ad07c7580ca32f48cf85034ac84df583d1d0ba",
      "blockNumber": "0x898a94",
      "gasUsed": "0x2414c",
      "effectiveGasPrice": "0x2c6242",
      "from": "0x3f9f3ef80cc1a53ba77a00b5ee66262ed2fea72d",
      "to": "0x6a2027682b9abfe77804a6941137af04b7d118e2",
      "contractAddress": null
    },
    {
      "status": "0x1",
      "cumulativeGasUsed": "0x89c21b",
      "logs": [
        {
          "address": "0x6a2027682b9abfe77804a6941137af04b7d118e2",
          "topics": [
            "0x17bfbb947caca86ac77ea06397ced8c4f77a1a6c82a21b5a05a738ceddc1f660",
            "0x0000000000000000000000000000000000000000000000000000000000000014",
            "0x0000000000000000000000003f9f3ef80cc1a53ba77a00b5ee66262ed2fea72d"
          ],
          "data": "0x00000000000000000000000000000000000000000000000000000000000000400000000000000000000000000000000000000000000000000000000068a3a1d0000000000000000000000000000000000000000000000000000000000000001e5465736c61204d6f64656c205320456c6563747269632056656869636c650000",
          "blockHash": "0xb2194410355fbcba74ce81e370ad07c7580ca32f48cf85034ac84df583d1d0ba",
          "blockNumber": "0x898a94",
          "transactionHash": "0xa4d39e217fd2fc95d3bfcee0088ecedd411570399581721191992d183f360f01",
          "transactionIndex": "0x49",
          "logIndex": "0x82",
          "removed": false
        }
      ],
      "logsBloom": "0x00000200000000000000000000002000000000000000000000000000000000000000400000008000000000000000000000002000000000000000000000000000000000000000000000000000000000000000000000100000000000000000000000000000000000000000000000000000000000000000000000000000000000008000000000000000000000000000000000000000000400000000000000000000000000000000000020000000000000000000000000000000000000000000000000000000000800000000000000000000000000000000000000000000004000000000000000000000000000000000000000000000000800000000000000000000",
      "type": "0x2",
      "transactionHash": "0xa4d39e217fd2fc95d3bfcee0088ecedd411570399581721191992d183f360f01",
      "transactionIndex": "0x49",
      "blockHash": "0xb2194410355fbcba74ce81e370ad07c7580ca32f48cf85034ac84df583d1d0ba",
      "blockNumber": "0x898a94",
      "gasUsed": "0x241dc",
      "effectiveGasPrice": "0x2c6242",
      "from": "0x3f9f3ef80cc1a53ba77a00b5ee66262ed2fea72d",
      "to": "0x6a2027682b9abfe77804a6941137af04b7d118e2",
      "contractAddress": null
    },
    {
      "status": "0x1",
      "cumulativeGasUsed": "0x786189",
      "logs": [
        {
          "address": "0x6a2027682b9abfe77804a6941137af04b7d118e2",
          "topics": [
            "0x17bfbb947caca86ac77ea06397ced8c4f77a1a6c82a21b5a05a738ceddc1f660",
            "0x0000000000000000000000000000000000000000000000000000000000000015",
            "0x0000000000000000000000003f9f3ef80cc1a53ba77a00b5ee66262ed2fea72d"
          ],
          "data": "0x00000000000000000000000000000000000000000000000000000000000000400000000000000000000000000000000000000000000000000000000068a3a1dc000000000000000000000000000000000000000000000000000000000000001752617265204469616d6f6e6420436f6c6c656374696f6e000000000000000000",
          "blockHash": "0x5dc28ef7eac0aea55e2c51990e79fc0de99d315736ce51c866685adaf6968c4e",
          "blockNumber": "0x898a95",
          "transactionHash": "0x13d87b154732713f8191adb7ec7f3e641f6f28ae6156165fb9b9eca1c5aa0555",
          "transactionIndex": "0x3e",
          "logIndex": "0x6a",
          "removed": false
        }
      ],
      "logsBloom": "0x00000200000000000000000000002000000000000000000000000000000000000000400000008000000000000000000000000000000000000000000000000000001000000000000000000000000000000000000000100000000000000000000000000000000000000000000000000000000000000000000000000000000000008000000000000000000000000000000000000000000000000000000000000000000000000000000000000000010000000000000000000000000000000000000000000000000800000000000000000000000000000000000000000000004000002000000000000000000000000000000000000000000800000000000000000000",
      "type": "0x2",
      "transactionHash": "0x13d87b154732713f8191adb7ec7f3e641f6f28ae6156165fb9b9eca1c5aa0555",
      "transactionIndex": "0x3e",
      "blockHash": "0x5dc28ef7eac0aea55e2c51990e79fc0de99d315736ce51c866685adaf6968c4e",
      "blockNumber": "0x898a95",
      "gasUsed": "0x24188",
      "effectiveGasPrice": "0x2e9e98",
      "from": "0x3f9f3ef80cc1a53ba77a00b5ee66262ed2fea72d",
      "to": "0x6a2027682b9abfe77804a6941137af04b7d118e2",
      "contractAddress": null
    }
  ],
  "libraries": [],
  "pending": [],
  "returns": {},
  "timestamp": 1755554269,
  "chain": 11155111,
  "commit": null
}