{
  "transactions": [
    {
      "hash": "0x85d586ec189981aa642ed44d0df6c7ca2a592ec9b53519d1048624c98a1c2d4a",
      "transactionType": "CALL",
      "contractName": null,
      "contractAddress": "0x6a2027682b9abfe77804a6941137af04b7d118e2",
      "function": "registerAsset(string)",
      "arguments": [
        "My Ikoyi Apartment"
      ],
      "transaction": {
        "from": "0x3f9f3ef80cc1a53ba77a00b5ee66262ed2fea72d",
        "to": "0x6a2027682b9abfe77804a6941137af04b7d118e2",
        "gas": "0x31d63",
        "value": "0x0",
        "input": "0x1ec04081000000000000000000000000000000000000000000000000000000000000002000000000000000000000000000000000000000000000000000000000000000124d7920496b6f79692041706172746d656e740000000000000000000000000000",
        "nonce": "0xc3",
        "chainId": "0xaa36a7"
      },
      "additionalContracts": [],
      "isFixedGasLimit": false
    },
    {
      "hash": "0xec852d3601a6b5d52913e516d848da519b3d841bd805e79e692a44e46332b64e",
      "transactionType": "CALL",
      "contractName": null,
      "contractAddress": "0x6a2027682b9abfe77804a6941137af04b7d118e2",
      "function": "registerAsset(string)",
      "arguments": [
        "Tesla Model S Electric Vehicle"
      ],
      "transaction": {
        "from": "0x3f9f3ef80cc1a53ba77a00b5ee66262ed2fea72d",
        "to": "0x6a2027682b9abfe77804a6941137af04b7d118e2",
        "gas": "0x31e2a",
        "value": "0x0",
        "input": "0x1ec040810000000000000000000000000000000000000000000000000000000000000020000000000000000000000000000000000000000000000000000000000000001e5465736c61204d6f64656c205320456c6563747269632056656869636c650000",
        "nonce": "0xc4",
        "chainId": "0xaa36a7"
      },
      "additionalContracts": [],
      "isFixedGasLimit": false
    },
    {
      "hash": "0x12489a144b0bd993f2c6cc36e05827f206dc25b8ea3f69be63285a0b59512445",
      "transactionType": "CALL",
      "contractName": null,
      "contractAddress": "0x6a2027682b9abfe77804a6941137af04b7d118e2",
      "function": "registerAsset(string)",
      "arguments": [
        "Rare Diamond Collection"
      ],
      "transaction": {
        "from": "0x3f9f3ef80cc1a53ba77a00b5ee66262ed2fea72d",
        "to": "0x6a2027682b9abfe77804a6941137af04b7d118e2",
        "gas": "0x31db6",
        "value": "0x0",
        "input": "0x1ec040810000000000000000000000000000000000000000000000000000000000000020000000000000000000000000000000000000000000000000000000000000001752617265204469616d6f6e6420436f6c6c656374696f6e000000000000000000",
        "nonce": "0xc5",
        "chainId": "0xaa36a7"
      },
      "additionalContracts": [],
      "isFixedGasLimit": false
    }
  ],
  "receipts": [
    {
      "status": "0x1",
      "cumulativeGasUsed": "0x5b3e9d",
      "logs": [
        {
          "address": "0x6a2027682b9abfe77804a6941137af04b7d118e2",
          "topics": [
            "0x17bfbb947caca86ac77ea06397ced8c4f77a1a6c82a21b5a05a738ceddc1f660",
            "0x0000000000000000000000000000000000000000000000000000000000000010",
            "0x0000000000000000000000003f9f3ef80cc1a53ba77a00b5ee66262ed2fea72d"
          ],
          "data": "0x00000000000000000000000000000000000000000000000000000000000000400000000000000000000000000000000000000000000000000000000068a3a14000000000000000000000000000000000000000000000000000000000000000124d7920496b6f79692041706172746d656e740000000000000000000000000000",
          "blockHash": "0xa463848c2665bf90661e06ffa27f3f8b99f8d3e9286cec1cbb0cd111d16d1d3d",
          "blockNumber": "0x898a88",
          "transactionHash": "0x85d586ec189981aa642ed44d0df6c7ca2a592ec9b53519d1048624c98a1c2d4a",
          "transactionIndex": "0x38",
          "logIndex": "0x3b",
          "removed": false
        }
      ],
      "logsBloom": "0x00000200100000000000000000002000000000000000000000000000000000000000400000008000000000000000000000000000000000000000000000000000000000000000000000000000000000000000000000100000000000000000000000000000000000000000000000000000000000000000000000000000040000008000000000000000000000000000000000000100000000000000000000000000000000000000000000000000000000000000000000000000000000000000000000000000000800000000000000000000000000000000000000000000004000000000000000000000000000000000000000000000000800000000000000000000",
      "type": "0x2",
      "transactionHash": "0x85d586ec189981aa642ed44d0df6c7ca2a592ec9b53519d1048624c98a1c2d4a",
      "transactionIndex": "0x38",
      "blockHash": "0xa463848c2665bf90661e06ffa27f3f8b99f8d3e9286cec1cbb0cd111d16d1d3d",
      "blockNumber": "0x898a88",
      "gasUsed": "0x2414c",
      "effectiveGasPrice": "0x2c1518",
      "from": "0x3f9f3ef80cc1a53ba77a00b5ee66262ed2fea72d",
      "to": "0x6a2027682b9abfe77804a6941137af04b7d118e2",
      "contractAddress": null
    },
    {
      "status": "0x1",
      "cumulativeGasUsed": "0x5d8079",
      "logs": [
        {
          "address": "0x6a2027682b9abfe77804a6941137af04b7d118e2",
          "topics": [
            "0x17bfbb947caca86ac77ea06397ced8c4f77a1a6c82a21b5a05a738ceddc1f660",
            "0x0000000000000000000000000000000000000000000000000000000000000011",
            "0x0000000000000000000000003f9f3ef80cc1a53ba77a00b5ee66262ed2fea72d"
          ],
          "data": "0x00000000000000000000000000000000000000000000000000000000000000400000000000000000000000000000000000000000000000000000000068a3a140000000000000000000000000000000000000000000000000000000000000001e5465736c61204d6f64656c205320456c6563747269632056656869636c650000",
          "blockHash": "0xa463848c2665bf90661e06ffa27f3f8b99f8d3e9286cec1cbb0cd111d16d1d3d",
          "blockNumber": "0x898a88",
          "transactionHash": "0xec852d3601a6b5d52913e516d848da519b3d841bd805e79e692a44e46332b64e",
          "transactionIndex": "0x39",
          "logIndex": "0x3c",
          "removed": false
        }
      ],
      "logsBloom": "0x00000200000000000000000000002000000000000000000000000000000000000000400000008000000000000000000000000000000000000000000000000000000000000000000000000000000000000000000000100000000000000000000000000000000000000000000000000000000000004000000000000000000000008000000000000000000000000000000000000000000000000000000000000000000000000000000000000000000000000000000000000000000000000400000000001000000800000000000000000000000000000000000000000000004000000000000000000000000000000000000000000000000800000000000000000000",
      "type": "0x2",
      "transactionHash": "0xec852d3601a6b5d52913e516d848da519b3d841bd805e79e692a44e46332b64e",
      "transactionIndex": "0x39",
      "blockHash": "0xa463848c2665bf90661e06ffa27f3f8b99f8d3e9286cec1cbb0cd111d16d1d3d",
      "blockNumber": "0x898a88",
      "gasUsed": "0x241dc",
      "effectiveGasPrice": "0x2c1518",
      "from": "0x3f9f3ef80cc1a53ba77a00b5ee66262ed2fea72d",
      "to": "0x6a2027682b9abfe77804a6941137af04b7d118e2",
      "contractAddress": null
    },
    {
      "status": "0x1",
      "cumulativeGasUsed": "0xe5e690",
      "logs": [
        {
          "address": "0x6a2027682b9abfe77804a6941137af04b7d118e2",
          "topics": [
            "0x17bfbb947caca86ac77ea06397ced8c4f77a1a6c82a21b5a05a738ceddc1f660",
            "0x0000000000000000000000000000000000000000000000000000000000000012",
            "0x0000000000000000000000003f9f3ef80cc1a53ba77a00b5ee66262ed2fea72d"
          ],
          "data": "0x00000000000000000000000000000000000000000000000000000000000000400000000000000000000000000000000000000000000000000000000068a3a14c000000000000000000000000000000000000000000000000000000000000001752617265204469616d6f6e6420436f6c6c656374696f6e000000000000000000",
          "blockHash": "0x096aa3791b79e410b30d1c96d3e05915d597054f2de81eccf1047d2555a8cbe4",
          "blockNumber": "0x898a89",
          "transactionHash": "0x12489a144b0bd993f2c6cc36e05827f206dc25b8ea3f69be63285a0b59512445",
          "transactionIndex": "0x64",
          "logIndex": "0x104",
          "removed": false
        }
      ],
      "logsBloom": "0x00000200000000000000000000002000000000000000000000000000000000000000400000008000000000000000000000000000000000000000000000000000000000000000000000000000000000000000000000100000000000000000000000000000000000000000000000000000000000000000000000000000000000008000000000000000000000000000040000000000000000000000000000000000000000000000000000000000000000000000000000000040000000000000000000000000000800000400000000000000000000000000000000000000004000000000000000000000000000000000000000000000000800000000000000000000",
      "type": "0x2",
      "transactionHash": "0x12489a144b0bd993f2c6cc36e05827f206dc25b8ea3f69be63285a0b59512445",
      "transactionIndex": "0x64",
      "blockHash": "0x096aa3791b79e410b30d1c96d3e05915d597054f2de81eccf1047d2555a8cbe4",
      "blockNumber": "0x898a89",
      "gasUsed": "0x24188",
      "effectiveGasPrice": "0x295793",
      "from": "0x3f9f3ef80cc1a53ba77a00b5ee66262ed2fea72d",
      "to": "0x6a2027682b9abfe77804a6941137af04b7d118e2",
      "contractAddress": null
    }
  ],
  "libraries": [],
  "pending": [],
  "returns": {},
  "timestamp": 1755554125,
  "chain": 11155111,
  "commit": null
}