{
  "transactions": [
    {
      "hash": "0xcb530251fe6fc7fd2f17937412e18fd371d079fa46d2b028479429993cea7288",
      "transactionType": "CALL",
      "contractName": null,
      "contractAddress": "0x6a2027682b9abfe77804a6941137af04b7d118e2",
      "function": "registerAsset(string)",
      "arguments": [
        "My Ikoyi Apartment"
      ],
      "transaction": {
        "from": "0x3f9f3ef80cc1a53ba77a00b5ee66262ed2fea72d",
        "to": "0x6a2027682b9abfe77804a6941137af04b7d118e2",
        "gas": "0x379a6",
        "value": "0x0",
        "input": "0x1ec04081000000000000000000000000000000000000000000000000000000000000002000000000000000000000000000000000000000000000000000000000000000124d7920496b6f79692041706172746d656e740000000000000000000000000000",
        "nonce": "0xb4",
        "chainId": "0xaa36a7"
      },
      "additionalContracts": [],
      "isFixedGasLimit": false
    },
    {
      "hash": "0x083fde80f68ac3bb83ca53cc133dd392fa93b8980817e286c4779622a880bfba",
      "transactionType": "CALL",
      "contractName": null,
      "contractAddress": "0x6a2027682b9abfe77804a6941137af04b7d118e2",
      "function": "registerAsset(string)",
      "arguments": [
        "Tesla Model S Electric Vehicle"
      ],
      "transaction": {
        "from": "0x3f9f3ef80cc1a53ba77a00b5ee66262ed2fea72d",
        "to": "0x6a2027682b9abfe77804a6941137af04b7d118e2",
        "gas": "0x31e2a",
        "value": "0x0",
        "input": "0x1ec040810000000000000000000000000000000000000000000000000000000000000020000000000000000000000000000000000000000000000000000000000000001e5465736c61204d6f64656c205320456c6563747269632056656869636c650000",
        "nonce": "0xb5",
        "chainId": "0xaa36a7"
      },
      "additionalContracts": [],
      "isFixedGasLimit": false
    },
    {
      "hash": "0x8be4a7edfeb1f1e52c368e625c0ada529bd5ac966d5608a9dcd620938d9852d6",
      "transactionType": "CALL",
      "contractName": null,
      "contractAddress": "0x6a2027682b9abfe77804a6941137af04b7d118e2",
      "function": "registerAsset(string)",
      "arguments": [
        "Rare Diamond Collection"
      ],
      "transaction": {
        "from": "0x3f9f3ef80cc1a53ba77a00b5ee66262ed2fea72d",
        "to": "0x6a2027682b9abfe77804a6941137af04b7d118e2",
        "gas": "0x31db6",
        "value": "0x0",
        "input": "0x1ec040810000000000000000000000000000000000000000000000000000000000000020000000000000000000000000000000000000000000000000000000000000001752617265204469616d6f6e6420436f6c6c656374696f6e000000000000000000",
        "nonce": "0xb6",
        "chainId": "0xaa36a7"
      },
      "additionalContracts": [],
      "isFixedGasLimit": false
    }
  ],
  "receipts": [
    {
      "status": "0x1",
      "cumulativeGasUsed": "0x147313d",
      "logs": [
        {
          "address": "0x6a2027682b9abfe77804a6941137af04b7d118e2",
          "topics": [
            "0x17bfbb947caca86ac77ea06397ced8c4f77a1a6c82a21b5a05a738ceddc1f660",
            "0x0000000000000000000000000000000000000000000000000000000000000001",
            "0x0000000000000000000000003f9f3ef80cc1a53ba77a00b5ee66262ed2fea72d"
          ],
          "data": "0x00000000000000000000000000000000000000000000000000000000000000400000000000000000000000000000000000000000000000000000000068a2fb4400000000000000000000000000000000000000000000000000000000000000124d7920496b6f79692041706172746d656e740000000000000000000000000000",
          "blockHash": "0xfc163f173655c8c27f937fd304238b87afc80177efa008e730cac7dc8eb3ce4b",
          "blockNumber": "0x897cc1",
          "transactionHash": "0xcb530251fe6fc7fd2f17937412e18fd371d079fa46d2b028479429993cea7288",
          "transactionIndex": "0x9f",
          "logIndex": "0xf1",
          "removed": false
        }
      ],
      "logsBloom": "0x00000200000000000000000000002000000000000000000000000000000000000000400000008000000000000000000000000000000000000000000000040000000000000000000000000000000000000000000000140000000000000000000000000000000000000000000000000000000000000000000000000000000000008000000000000000000000000000000000000000000000000000000000000000000000000000000000000000000000000000000000000000000000000000000000000000000800000000000000000000000000000000000000000000004040000000000000000000000000000000000000000000000800000000000000000000",
      "type": "0x2",
      "transactionHash": "0xcb530251fe6fc7fd2f17937412e18fd371d079fa46d2b028479429993cea7288",
      "transactionIndex": "0x9f",
      "blockHash": "0xfc163f173655c8c27f937fd304238b87afc80177efa008e730cac7dc8eb3ce4b",
      "blockNumber": "0x897cc1",
      "gasUsed": "0x28418",
      "effectiveGasPrice": "0x2ad745",
      "from": "0x3f9f3ef80cc1a53ba77a00b5ee66262ed2fea72d",
      "to": "0x6a2027682b9abfe77804a6941137af04b7d118e2",
      "contractAddress": null
    },
    {
      "status": "0x1",
      "cumulativeGasUsed": "0x1497319",
      "logs": [
        {
          "address": "0x6a2027682b9abfe77804a6941137af04b7d118e2",
          "topics": [
            "0x17bfbb947caca86ac77ea06397ced8c4f77a1a6c82a21b5a05a738ceddc1f660",
            "0x0000000000000000000000000000000000000000000000000000000000000002",
            "0x0000000000000000000000003f9f3ef80cc1a53ba77a00b5ee66262ed2fea72d"
          ],
          "data": "0x00000000000000000000000000000000000000000000000000000000000000400000000000000000000000000000000000000000000000000000000068a2fb44000000000000000000000000000000000000000000000000000000000000001e5465736c61204d6f64656c205320456c6563747269632056656869636c650000",
          "blockHash": "0xfc163f173655c8c27f937fd304238b87afc80177efa008e730cac7dc8eb3ce4b",
          "blockNumber": "0x897cc1",
          "transactionHash": "0x083fde80f68ac3bb83ca53cc133dd392fa93b8980817e286c4779622a880bfba",
          "transactionIndex": "0xa0",
          "logIndex": "0xf2",
          "removed": false
        }
      ],
      "logsBloom": "0x04000200000000000000000000002000000000000000000000000000000000000000400000008000000000000000000000000000000000000000000000000000000000000000000000000000000000000000000000100000000000000000000000000000000000000000000000000000000000000000000000000000000000008000000000000000000000000000000000000000000000000000000000000000000000000000000000000100000000000000000000000000000000000000000000000000000800000000000000000000000000000000000000000000004000000000000000000000000000000000000000000000008800000000000000000000",
      "type": "0x2",
      "transactionHash": "0x083fde80f68ac3bb83ca53cc133dd392fa93b8980817e286c4779622a880bfba",
      "transactionIndex": "0xa0",
      "blockHash": "0xfc163f173655c8c27f937fd304238b87afc80177efa008e730cac7dc8eb3ce4b",
      "blockNumber": "0x897cc1",
      "gasUsed": "0x241dc",
      "effectiveGasPrice": "0x2ad745",
      "from": "0x3f9f3ef80cc1a53ba77a00b5ee66262ed2fea72d",
      "to": "0x6a2027682b9abfe77804a6941137af04b7d118e2",
      "contractAddress": null
    },
    {
      "status": "0x1",
      "cumulativeGasUsed": "0xa04269",
      "logs": [
        {
          "address": "0x6a2027682b9abfe77804a6941137af04b7d118e2",
          "topics": [
            "0x17bfbb947caca86ac77ea06397ced8c4f77a1a6c82a21b5a05a738ceddc1f660",
            "0x0000000000000000000000000000000000000000000000000000000000000003",
            "0x0000000000000000000000003f9f3ef80cc1a53ba77a00b5ee66262ed2fea72d"
          ],
          "data": "0x00000000000000000000000000000000000000000000000000000000000000400000000000000000000000000000000000000000000000000000000068a2fb50000000000000000000000000000000000000000000000000000000000000001752617265204469616d6f6e6420436f6c6c656374696f6e000000000000000000",
          "blockHash": "0x3c6e9aef7038ba0d2a5337eebb49bb0c14fab2f66f2c9694c8bc12f0be989388",
          "blockNumber": "0x897cc2",
          "transactionHash": "0x8be4a7edfeb1f1e52c368e625c0ada529bd5ac966d5608a9dcd620938d9852d6",
          "transactionIndex": "0x55",
          "logIndex": "0xbc",
          "removed": false
        }
      ],
      "logsBloom": "0x00000200000000000000000000002000000000000000000000000000000000000000400000008000000000000000000000000000020000000000000000000000000000000000000000000000000000000000000000100000000000000000000000000000000000000000000000000000000000000000000000000000000000008000000000000000000000000000000000000000000000000000000000000000000000000000000000000000000000000000000000800000000000000000400000000000000800000000000000000000000000000000000000000000004000000000000000000000000000000000000000000000000800000000000000000000",
      "type": "0x2",
      "transactionHash": "0x8be4a7edfeb1f1e52c368e625c0ada529bd5ac966d5608a9dcd620938d9852d6",
      "transactionIndex": "0x55",
      "blockHash": "0x3c6e9aef7038ba0d2a5337eebb49bb0c14fab2f66f2c9694c8bc12f0be989388",
      "blockNumber": "0x897cc2",
      "gasUsed": "0x24188",
      "effectiveGasPrice": "0x2e1f70",
      "from": "0x3f9f3ef80cc1a53ba77a00b5ee66262ed2fea72d",
      "to": "0x6a2027682b9abfe77804a6941137af04b7d118e2",
      "contractAddress": null
    }
  ],
  "libraries": [],
  "pending": [],
  "returns": {},
  "timestamp": 1755511632,
  "chain": 11155111,
  "commit": null
}