{
  "transactions": [
    {
      "hash": "0xe16a3c6949c3e7dcd2c6751e5f260a4ec398c20ebd537e68c830af35902fe11f",
      "transactionType": "CALL",
      "contractName": null,
      "contractAddress": "0x6a2027682b9abfe77804a6941137af04b7d118e2",
      "function": "registerAsset(string)",
      "arguments": [
        "My Ikoyi Apartment"
      ],
      "transaction": {
        "from": "0x3f9f3ef80cc1a53ba77a00b5ee66262ed2fea72d",
        "to": "0x6a2027682b9abfe77804a6941137af04b7d118e2",
        "gas": "0x31d63",
        "value": "0x0",
        "input": "0x1ec04081000000000000000000000000000000000000000000000000000000000000002000000000000000000000000000000000000000000000000000000000000000124d7920496b6f79692041706172746d656e740000000000000000000000000000",
        "nonce": "0xb7",
        "chainId": "0xaa36a7"
      },
      "additionalContracts": [],
      "isFixedGasLimit": false
    },
    {
      "hash": "0x64a6f0ba61222d845b03205d247c664104a859b295a0957dd26ec4b92b5ccb07",
      "transactionType": "CALL",
      "contractName": null,
      "contractAddress": "0x6a2027682b9abfe77804a6941137af04b7d118e2",
      "function": "registerAsset(string)",
      "arguments": [
        "Tesla Model S Electric Vehicle"
      ],
      "transaction": {
        "from": "0x3f9f3ef80cc1a53ba77a00b5ee66262ed2fea72d",
        "to": "0x6a2027682b9abfe77804a6941137af04b7d118e2",
        "gas": "0x31e2a",
        "value": "0x0",
        "input": "0x1ec040810000000000000000000000000000000000000000000000000000000000000020000000000000000000000000000000000000000000000000000000000000001e5465736c61204d6f64656c205320456c6563747269632056656869636c650000",
        "nonce": "0xb8",
        "chainId": "0xaa36a7"
      },
      "additionalContracts": [],
      "isFixedGasLimit": false
    },
    {
      "hash": "0x549739f2472948ea352d5f7c5a1ffed630b5bf42b1b5672db3e4a619e4e6aed7",
      "transactionType": "CALL",
      "contractName": null,
      "contractAddress": "0x6a2027682b9abfe77804a6941137af04b7d118e2",
      "function": "registerAsset(string)",
      "arguments": [
        "Rare Diamond Collection"
      ],
      "transaction": {
        "from": "0x3f9f3ef80cc1a53ba77a00b5ee66262ed2fea72d",
        "to": "0x6a2027682b9abfe77804a6941137af04b7d118e2",
        "gas": "0x31db6",
        "value": "0x0",
        "input": "0x1ec040810000000000000000000000000000000000000000000000000000000000000020000000000000000000000000000000000000000000000000000000000000001752617265204469616d6f6e6420436f6c6c656374696f6e000000000000000000",
        "nonce": "0xb9",
        "chainId": "0xaa36a7"
      },
      "additionalContracts": [],
      "isFixedGasLimit": false
    }
  ],
  "receipts": [
    {
      "status": "0x1",
      "cumulativeGasUsed": "0xe97b1c",
      "logs": [
        {
          "address": "0x6a2027682b9abfe77804a6941137af04b7d118e2",
          "topics": [
            "0x17bfbb947caca86ac77ea06397ced8c4f77a1a6c82a21b5a05a738ceddc1f660",
            "0x0000000000000000000000000000000000000000000000000000000000000004",
            "0x0000000000000000000000003f9f3ef80cc1a53ba77a00b5ee66262ed2fea72d"
          ],
          "data": "0x00000000000000000000000000000000000000000000000000000000000000400000000000000000000000000000000000000000000000000000000068a2fd6000000000000000000000000000000000000000000000000000000000000000124d7920496b6f79692041706172746d656e740000000000000000000000000000",
          "blockHash": "0xe9950e12644b7ef657170ab467faea3982a42adaf699b92aeb6ec0e43f38d4cb",
          "blockNumber": "0x897cee",
          "transactionHash": "0xe16a3c6949c3e7dcd2c6751e5f260a4ec398c20ebd537e68c830af35902fe11f",
          "transactionIndex": "0x83",
          "logIndex": "0xe9",
          "removed": false
        }
      ],
      "logsBloom": "0x00000200000000000000000000002000000000000000000000000000000000000000400000008000000000000000000000000000000000000000000000000000000000000000000000000000000000000000000000100000000000000000000008000000000000000000000000000000000000000000000000000000000000008000000000000000000000000000000000000000000000000000000000000000000000000000000000000000000000000000000000000000002000000000000000000000000800000000000000000000000000008000000000000000004000000000000000000000000000000000000000000000000800000000000000000000",
      "type": "0x2",
      "transactionHash": "0xe16a3c6949c3e7dcd2c6751e5f260a4ec398c20ebd537e68c830af35902fe11f",
      "transactionIndex": "0x83",
      "blockHash": "0xe9950e12644b7ef657170ab467faea3982a42adaf699b92aeb6ec0e43f38d4cb",
      "blockNumber": "0x897cee",
      "gasUsed": "0x2414c",
      "effectiveGasPrice": "0x266a3f",
      "from": "0x3f9f3ef80cc1a53ba77a00b5ee66262ed2fea72d",
      "to": "0x6a2027682b9abfe77804a6941137af04b7d118e2",
      "contractAddress": null
    },
    {
      "status": "0x1",
      "cumulativeGasUsed": "0xebbcf8",
      "logs": [
        {
          "address": "0x6a2027682b9abfe77804a6941137af04b7d118e2",
          "topics": [
            "0x17bfbb947caca86ac77ea06397ced8c4f77a1a6c82a21b5a05a738ceddc1f660",
            "0x0000000000000000000000000000000000000000000000000000000000000005",
            "0x0000000000000000000000003f9f3ef80cc1a53ba77a00b5ee66262ed2fea72d"
          ],
          "data": "0x00000000000000000000000000000000000000000000000000000000000000400000000000000000000000000000000000000000000000000000000068a2fd60000000000000000000000000000000000000000000000000000000000000001e5465736c61204d6f64656c205320456c6563747269632056656869636c650000",
          "blockHash": "0xe9950e12644b7ef657170ab467faea3982a42adaf699b92aeb6ec0e43f38d4cb",
          "blockNumber": "0x897cee",
          "transactionHash": "0x64a6f0ba61222d845b03205d247c664104a859b295a0957dd26ec4b92b5ccb07",
          "transactionIndex": "0x84",
          "logIndex": "0xea",
          "removed": false
        }
      ],
      "logsBloom": "0x00000200000000000000000000002000000000000000000000000000000000000000400000008000000000000000000000000000000000000000000000000000000010000000000000000000000000000000000000100000000000000000000000000000000000000000000000000000000000000000000000000000000000008000000000000000000000000000001000000800000000000000000000000000000000000000000000000000000000000000000000000000000000000000000000000000000800000000000000000000000000000000000000000000004000000000000000000000000000000000000000000000000800000000000000000000",
      "type": "0x2",
      "transactionHash": "0x64a6f0ba61222d845b03205d247c664104a859b295a0957dd26ec4b92b5ccb07",
      "transactionIndex": "0x84",
      "blockHash": "0xe9950e12644b7ef657170ab467faea3982a42adaf699b92aeb6ec0e43f38d4cb",
      "blockNumber": "0x897cee",
      "gasUsed": "0x241dc",
      "effectiveGasPrice": "0x266a3f",
      "from": "0x3f9f3ef80cc1a53ba77a00b5ee66262ed2fea72d",
      "to": "0x6a2027682b9abfe77804a6941137af04b7d118e2",
      "contractAddress": null
    },
    {
      "status": "0x1",
      "cumulativeGasUsed": "0xedfe80",
      "logs": [
        {
          "address": "0x6a2027682b9abfe77804a6941137af04b7d118e2",
          "topics": [
            "0x17bfbb947caca86ac77ea06397ced8c4f77a1a6c82a21b5a05a738ceddc1f660",
            "0x0000000000000000000000000000000000000000000000000000000000000006",
            "0x0000000000000000000000003f9f3ef80cc1a53ba77a00b5ee66262ed2fea72d"
          ],
          "data": "0x00000000000000000000000000000000000000000000000000000000000000400000000000000000000000000000000000000000000000000000000068a2fd60000000000000000000000000000000000000000000000000000000000000001752617265204469616d6f6e6420436f6c6c656374696f6e000000000000000000",
          "blockHash": "0xe9950e12644b7ef657170ab467faea3982a42adaf699b92aeb6ec0e43f38d4cb",
          "blockNumber": "0x897cee",
          "transactionHash": "0x549739f2472948ea352d5f7c5a1ffed630b5bf42b1b5672db3e4a619e4e6aed7",
          "transactionIndex": "0x85",
          "logIndex": "0xeb",
          "removed": false
        }
      ],
      "logsBloom": "0x00000200000000000000000000002000000000000000000000000000000000000000400000008000000000000000000000000000000400000000000000000000000000000000000000000000000000000000000000100000000000000000000000000000000000000000000000000000000000000000000000000000000000008000000400000000000000000000000000000000000000000000000000000000000000000000000000000000000000000000000000000000000000080000000000000000000800000000000000000000000000000000000000000000004000000000000000000000000000000000000000000000000800000000000000000000",
      "type": "0x2",
      "transactionHash": "0x549739f2472948ea352d5f7c5a1ffed630b5bf42b1b5672db3e4a619e4e6aed7",
      "transactionIndex": "0x85",
      "blockHash": "0xe9950e12644b7ef657170ab467faea3982a42adaf699b92aeb6ec0e43f38d4cb",
      "blockNumber": "0x897cee",
      "gasUsed": "0x24188",
      "effectiveGasPrice": "0x266a3f",
      "from": "0x3f9f3ef80cc1a53ba77a00b5ee66262ed2fea72d",
      "to": "0x6a2027682b9abfe77804a6941137af04b7d118e2",
      "contractAddress": null
    }
  ],
  "libraries": [],
  "pending": [],
  "returns": {},
  "timestamp": 1755512162,
  "chain": 11155111,
  "commit": null
}