{
  "transactions": [
    {
      "hash": "0xd2ecc54f63544413416526203ac3fc9ccc49a51f3649f8819c77bf811d72eeb9",
      "transactionType": "CALL",
      "contractName": null,
      "contractAddress": "0x661323fea336cd5222d836ad77623cd5227831ed",
      "function": "registerAsset(string)",
      "arguments": [
        "My Ikoyi Apartment"
      ],
      "transaction": {
        "from": "0x3f9f3ef80cc1a53ba77a00b5ee66262ed2fea72d",
        "to": "0x661323fea336cd5222d836ad77623cd5227831ed",
        "gas": "0x31d63",
        "value": "0x0",
        "input": "0x1ec04081000000000000000000000000000000000000000000000000000000000000002000000000000000000000000000000000000000000000000000000000000000124d7920496b6f79692041706172746d656e740000000000000000000000000000",
        "nonce": "0xce",
        "chainId": "0xaa36a7"
      },
      "additionalContracts": [],
      "isFixedGasLimit": false
    },
    {
      "hash": "0xbfe577e2b9a6312227877e99adfc7eff08344fc73b2291810a2483f592230bcc",
      "transactionType": "CALL",
      "contractName": null,
      "contractAddress": "0x661323fea336cd5222d836ad77623cd5227831ed",
      "function": "registerAsset(string)",
      "arguments": [
        "Tesla Model S Electric Vehicle"
      ],
      "transaction": {
        "from": "0x3f9f3ef80cc1a53ba77a00b5ee66262ed2fea72d",
        "to": "0x661323fea336cd5222d836ad77623cd5227831ed",
        "gas": "0x31e2a",
        "value": "0x0",
        "input": "0x1ec040810000000000000000000000000000000000000000000000000000000000000020000000000000000000000000000000000000000000000000000000000000001e5465736c61204d6f64656c205320456c6563747269632056656869636c650000",
        "nonce": "0xcf",
        "chainId": "0xaa36a7"
      },
      "additionalContracts": [],
      "isFixedGasLimit": false
    },
    {
      "hash": "0xe552562dd69210193e3ff1eb5b5302fb7f8e5d436e952efb84b56f8c93dc7c2f",
      "transactionType": "CALL",
      "contractName": null,
      "contractAddress": "0x661323fea336cd5222d836ad77623cd5227831ed",
      "function": "registerAsset(string)",
      "arguments": [
        "Rare Diamond"
      ],
      "transaction": {
        "from": "0x3f9f3ef80cc1a53ba77a00b5ee66262ed2fea72d",
        "to": "0x661323fea336cd5222d836ad77623cd5227831ed",
        "gas": "0x31d00",
        "value": "0x0",
        "input": "0x1ec040810000000000000000000000000000000000000000000000000000000000000020000000000000000000000000000000000000000000000000000000000000000c52617265204469616d6f6e640000000000000000000000000000000000000000",
        "nonce": "0xd0",
        "chainId": "0xaa36a7"
      },
      "additionalContracts": [],
      "isFixedGasLimit": false
    }
  ],
  "receipts": [
    {
      "status": "0x1",
      "cumulativeGasUsed": "0x754f5f",
      "logs": [
        {
          "address": "0x661323fea336cd5222d836ad77623cd5227831ed",
          "topics": [
            "0x17bfbb947caca86ac77ea06397ced8c4f77a1a6c82a21b5a05a738ceddc1f660",
            "0x0000000000000000000000000000000000000000000000000000000000000004",
            "0x0000000000000000000000003f9f3ef80cc1a53ba77a00b5ee66262ed2fea72d"
          ],
          "data": "0x00000000000000000000000000000000000000000000000000000000000000400000000000000000000000000000000000000000000000000000000068a3c2f400000000000000000000000000000000000000000000000000000000000000124d7920496b6f79692041706172746d656e740000000000000000000000000000",
          "blockHash": "0x0c76a83fdc47e666080c6fdc577f96035c2cbbe56c1267d1d967f4db744d278c",
          "blockNumber": "0x898d56",
          "transactionHash": "0xd2ecc54f63544413416526203ac3fc9ccc49a51f3649f8819c77bf811d72eeb9",
          "transactionIndex": "0x5b",
          "logIndex": "0x9e",
          "removed": false
        }
      ],
      "logsBloom": "0x00000200000000000000000000002000000000000000000000000000000000000000400000008000000000000000000000000000000000000000000000000000000000000000000000000000000000000000000000000000000000000000000008000000004000000000000000000000000000000000000000000000000000008000000000000000000000000000000000000000000000000000000000000000000000000000000000000400000000000000000000000000002000000000000000000000000800000000800000000000000000008000000000000000000000000000000000000000000000000000000000000000000000000000000000000000",
      "type": "0x2",
      "transactionHash": "0xd2ecc54f63544413416526203ac3fc9ccc49a51f3649f8819c77bf811d72eeb9",
      "transactionIndex": "0x5b",
      "blockHash": "0x0c76a83fdc47e666080c6fdc577f96035c2cbbe56c1267d1d967f4db744d278c",
      "blockNumber": "0x898d56",
      "gasUsed": "0x2414c",
      "effectiveGasPrice": "0x2f3b77",
      "from": "0x3f9f3ef80cc1a53ba77a00b5ee66262ed2fea72d",
      "to": "0x661323fea336cd5222d836ad77623cd5227831ed",
      "contractAddress": null
    },
    {
      "status": "0x1",
      "cumulativeGasUsed": "0x698dd8",
      "logs": [
        {
          "address": "0x661323fea336cd5222d836ad77623cd5227831ed",
          "topics": [
            "0x17bfbb947caca86ac77ea06397ced8c4f77a1a6c82a21b5a05a738ceddc1f660",
            "0x0000000000000000000000000000000000000000000000000000000000000005",
            "0x0000000000000000000000003f9f3ef80cc1a53ba77a00b5ee66262ed2fea72d"
          ],
          "data": "0x00000000000000000000000000000000000000000000000000000000000000400000000000000000000000000000000000000000000000000000000068a3c300000000000000000000000000000000000000000000000000000000000000001e5465736c61204d6f64656c205320456c6563747269632056656869636c650000",
          "blockHash": "0x327ba7626b401470ac9aeec349c41319abf759e5f8a7c11611f82b1b036bc9a1",
          "blockNumber": "0x898d57",
          "transactionHash": "0xbfe577e2b9a6312227877e99adfc7eff08344fc73b2291810a2483f592230bcc",
          "transactionIndex": "0x3d",
          "logIndex": "0x82",
          "removed": false
        }
      ],
      "logsBloom": "0x00000200000000000000000000002000000000000000000000000000000000000000400000008000000000000000000000000000000000000000000000000000000010000000000000000000000000000000000000000000000000000000000000000000004000000000000000000000000000000000000000000000000000008000000000000000000000000000001000000800000000000000000000000000000000000000000000000400000000000000000000000000000000000000000000000000000800000000800000000000000000000000000000000000000000000000000000000000000000000000000000000000000000000000000000000000",
      "type": "0x2",
      "transactionHash": "0xbfe577e2b9a6312227877e99adfc7eff08344fc73b2291810a2483f592230bcc",
      "transactionIndex": "0x3d",
      "blockHash": "0x327ba7626b401470ac9aeec349c41319abf759e5f8a7c11611f82b1b036bc9a1",
      "blockNumber": "0x898d57",
      "gasUsed": "0x241dc",
      "effectiveGasPrice": "0x31484e",
      "from": "0x3f9f3ef80cc1a53ba77a00b5ee66262ed2fea72d",
      "to": "0x661323fea336cd5222d836ad77623cd5227831ed",
      "contractAddress": null
    },
    {
      "status": "0x1",
      "cumulativeGasUsed": "0x74a252",
      "logs": [
        {
          "address": "0x661323fea336cd5222d836ad77623cd5227831ed",
          "topics": [
            "0x17bfbb947caca86ac77ea06397ced8c4f77a1a6c82a21b5a05a738ceddc1f660",
            "0x0000000000000000000000000000000000000000000000000000000000000006",
            "0x0000000000000000000000003f9f3ef80cc1a53ba77a00b5ee66262ed2fea72d"
          ],
          "data": "0x00000000000000000000000000000000000000000000000000000000000000400000000000000000000000000000000000000000000000000000000068a3c300000000000000000000000000000000000000000000000000000000000000000c52617265204469616d6f6e640000000000000000000000000000000000000000",
          "blockHash": "0x327ba7626b401470ac9aeec349c41319abf759e5f8a7c11611f82b1b036bc9a1",
          "blockNumber": "0x898d57",
          "transactionHash": "0xe552562dd69210193e3ff1eb5b5302fb7f8e5d436e952efb84b56f8c93dc7c2f",
          "transactionIndex": "0x40",
          "logIndex": "0xab",
          "removed": false
        }
      ],
      "logsBloom": "0x00000200000000000000000000002000000000000000000000000000000000000000400000008000000000000000000000000000000400000000000000000000000000000000000000000000000000000000000000000000000000000000000000000000004000000000000000000000000000000000000000000000000000008000000400000000000000000000000000000000000000000000000000000000000000000000000000000400000000000000000000000000000000080000000000000000000800000000800000000000000000000000000000000000000000000000000000000000000000000000000000000000000000000000000000000000",
      "type": "0x2",
      "transactionHash": "0xe552562dd69210193e3ff1eb5b5302fb7f8e5d436e952efb84b56f8c93dc7c2f",
      "transactionIndex": "0x40",
      "blockHash": "0x327ba7626b401470ac9aeec349c41319abf759e5f8a7c11611f82b1b036bc9a1",
      "blockNumber": "0x898d57",
      "gasUsed": "0x24104",
      "effectiveGasPrice": "0x31484e",
      "from": "0x3f9f3ef80cc1a53ba77a00b5ee66262ed2fea72d",
      "to": "0x661323fea336cd5222d836ad77623cd5227831ed",
      "contractAddress": null
    }
  ],
  "libraries": [],
  "pending": [],
  "returns": {},
  "timestamp": 1755562752,
  "chain": 11155111,
  "commit": "575a61d"
}