{
  "transactions": [
    {
      "hash": "0xd45effff868447a66261ece74bb26c845a9defcd208bd6735cdaacbeb8f7d655",
      "transactionType": "CALL",
      "contractName": null,
      "contractAddress": "0x6a2027682b9abfe77804a6941137af04b7d118e2",
      "function": "registerAsset(string)",
      "arguments": [
        "My Ikoyi Apartment"
      ],
      "transaction": {
        "from": "0x3f9f3ef80cc1a53ba77a00b5ee66262ed2fea72d",
        "to": "0x6a2027682b9abfe77804a6941137af04b7d118e2",
        "gas": "0x31d63",
        "value": "0x0",
        "input": "0x1ec04081000000000000000000000000000000000000000000000000000000000000002000000000000000000000000000000000000000000000000000000000000000124d7920496b6f79692041706172746d656e740000000000000000000000000000",
        "nonce": "0xbd",
        "chainId": "0xaa36a7"
      },
      "additionalContracts": [],
      "isFixedGasLimit": false
    },
    {
      "hash": "0xd27c718f3bc7a592acd3d017ba87d3d769ffe3df3707d764f4e0fb5a9a71a6c6",
      "transactionType": "CALL",
      "contractName": null,
      "contractAddress": "0x6a2027682b9abfe77804a6941137af04b7d118e2",
      "function": "registerAsset(string)",
      "arguments": [
        "Tesla Model S Electric Vehicle"
      ],
      "transaction": {
        "from": "0x3f9f3ef80cc1a53ba77a00b5ee66262ed2fea72d",
        "to": "0x6a2027682b9abfe77804a6941137af04b7d118e2",
        "gas": "0x31e2a",
        "value": "0x0",
        "input": "0x1ec040810000000000000000000000000000000000000000000000000000000000000020000000000000000000000000000000000000000000000000000000000000001e5465736c61204d6f64656c205320456c6563747269632056656869636c650000",
        "nonce": "0xbe",
        "chainId": "0xaa36a7"
      },
      "additionalContracts": [],
      "isFixedGasLimit": false
    },
    {
      "hash": "0x2674a53142ce37fbe1ff9dd9ccb4372e0408508a603773ab7608e344593dabc3",
      "transactionType": "CALL",
      "contractName": null,
      "contractAddress": "0x6a2027682b9abfe77804a6941137af04b7d118e2",
      "function": "registerAsset(string)",
      "arguments": [
        "Rare Diamond Collection"
      ],
      "transaction": {
        "from": "0x3f9f3ef80cc1a53ba77a00b5ee66262ed2fea72d",
        "to": "0x6a2027682b9abfe77804a6941137af04b7d118e2",
        "gas": "0x31db6",
        "value": "0x0",
        "input": "0x1ec040810000000000000000000000000000000000000000000000000000000000000020000000000000000000000000000000000000000000000000000000000000001752617265204469616d6f6e6420436f6c6c656374696f6e000000000000000000",
        "nonce": "0xbf",
        "chainId": "0xaa36a7"
      },
      "additionalContracts": [],
      "isFixedGasLimit": false
    }
  ],
  "receipts": [
    {
      "status": "0x1",
      "cumulativeGasUsed": "0x7caf71",
      "logs": [
        {
          "address": "0x6a2027682b9abfe77804a6941137af04b7d118e2",
          "topics": [
            "0x17bfbb947caca86ac77ea06397ced8c4f77a1a6c82a21b5a05a738ceddc1f660",
            "0x000000000000000000000000000000000000000000000000000000000000000a",
            "0x0000000000000000000000003f9f3ef80cc1a53ba77a00b5ee66262ed2fea72d"
          ],
          "data": "0x00000000000000000000000000000000000000000000000000000000000000400000000000000000000000000000000000000000000000000000000068a392dc00000000000000000000000000000000000000000000000000000000000000124d7920496b6f79692041706172746d656e740000000000000000000000000000",
          "blockHash": "0xf1daad54b1a89a5b114631f1d4d71030e93a6aa27ccf9946ce8ef9cf9465dba6",
          "blockNumber": "0x898956",
          "transactionHash": "0xd45effff868447a66261ece74bb26c845a9defcd208bd6735cdaacbeb8f7d655",
          "transactionIndex": "0x4d",
          "logIndex": "0x64",
          "removed": false
        }
      ],
      "logsBloom": "0x00000200000000000000000000002000000000000000000000000000000000000000400000008000000000000000000000000000040000000020000000000000000000000000000000000000000000000000000000100000000000000000000000000000000000000000000000000000000000000000000000000000000000008000000000000000010000000000000000000000000000000000000000000000000000000000000000000000000000000000000000000000000000000000000000000000000800000000000000000000000000000000000000000000004000000000000000000000000000000000000000000000000800000000000000000000",
      "type": "0x2",
      "transactionHash": "0xd45effff868447a66261ece74bb26c845a9defcd208bd6735cdaacbeb8f7d655",
      "transactionIndex": "0x4d",
      "blockHash": "0xf1daad54b1a89a5b114631f1d4d71030e93a6aa27ccf9946ce8ef9cf9465dba6",
      "blockNumber": "0x898956",
      "gasUsed": "0x2414c",
      "effectiveGasPrice": "0x1a5e191",
      "from": "0x3f9f3ef80cc1a53ba77a00b5ee66262ed2fea72d",
      "to": "0x6a2027682b9abfe77804a6941137af04b7d118e2",
      "contractAddress": null
    },
    {
      "status": "0x1",
      "cumulativeGasUsed": "0x7f724b",
      "logs": [
        {
          "address": "0x6a2027682b9abfe77804a6941137af04b7d118e2",
          "topics": [
            "0x17bfbb947caca86ac77ea06397ced8c4f77a1a6c82a21b5a05a738ceddc1f660",
            "0x000000000000000000000000000000000000000000000000000000000000000b",
            "0x0000000000000000000000003f9f3ef80cc1a53ba77a00b5ee66262ed2fea72d"
          ],
          "data": "0x00000000000000000000000000000000000000000000000000000000000000400000000000000000000000000000000000000000000000000000000068a392dc000000000000000000000000000000000000000000000000000000000000001e5465736c61204d6f64656c205320456c6563747269632056656869636c650000",
          "blockHash": "0xf1daad54b1a89a5b114631f1d4d71030e93a6aa27ccf9946ce8ef9cf9465dba6",
          "blockNumber": "0x898956",
          "transactionHash": "0xd27c718f3bc7a592acd3d017ba87d3d769ffe3df3707d764f4e0fb5a9a71a6c6",
          "transactionIndex": "0x4f",
          "logIndex": "0x66",
          "removed": false
        }
      ],
      "logsBloom": "0x00000200000000000000004000002000000000000000000000000000000000000000400000008000000000000000000000000000000000000000000000000000000000000000000000000000000000000000000000100000000000000000000000000000000000000000000000000000000000000000000000000000000000008000000000000000000000000000000000000000000000000000000000000000000000000000000000000000000000000000000000000000000000000000000000000000000800000000000000000000002000000000000000000000004000000000000000000000000000000000000000000000000800040000000000000000",
      "type": "0x2",
      "transactionHash": "0xd27c718f3bc7a592acd3d017ba87d3d769ffe3df3707d764f4e0fb5a9a71a6c6",
      "transactionIndex": "0x4f",
      "blockHash": "0xf1daad54b1a89a5b114631f1d4d71030e93a6aa27ccf9946ce8ef9cf9465dba6",
      "blockNumber": "0x898956",
      "gasUsed": "0x241dc",
      "effectiveGasPrice": "0x1a5e191",
      "from": "0x3f9f3ef80cc1a53ba77a00b5ee66262ed2fea72d",
      "to": "0x6a2027682b9abfe77804a6941137af04b7d118e2",
      "contractAddress": null
    },
    {
      "status": "0x1",
      "cumulativeGasUsed": "0x81b3d3",
      "logs": [
        {
          "address": "0x6a2027682b9abfe77804a6941137af04b7d118e2",
          "topics": [
            "0x17bfbb947caca86ac77ea06397ced8c4f77a1a6c82a21b5a05a738ceddc1f660",
            "0x000000000000000000000000000000000000000000000000000000000000000c",
            "0x0000000000000000000000003f9f3ef80cc1a53ba77a00b5ee66262ed2fea72d"
          ],
          "data": "0x00000000000000000000000000000000000000000000000000000000000000400000000000000000000000000000000000000000000000000000000068a392dc000000000000000000000000000000000000000000000000000000000000001752617265204469616d6f6e6420436f6c6c656374696f6e000000000000000000",
          "blockHash": "0xf1daad54b1a89a5b114631f1d4d71030e93a6aa27ccf9946ce8ef9cf9465dba6",
          "blockNumber": "0x898956",
          "transactionHash": "0x2674a53142ce37fbe1ff9dd9ccb4372e0408508a603773ab7608e344593dabc3",
          "transactionIndex": "0x50",
          "logIndex": "0x67",
          "removed": false
        }
      ],
      "logsBloom": "0x00000200000000000000000000002000000002000000000000000000000000000000400000008200000000000000000000000000000000000000000000000000000000000000000000000000000000000000000000100000000000000000000000000000000000000000000000000000000000000000000000000000000000008000000000000000000000000000000000000000000000000000000000000000000000000000000000000000000000000000000000000000000000000000000000000000000800000000000000000000000000000000000000000000004000200000000000000000000000000000000000000000000800000000000000000000",
      "type": "0x2",
      "transactionHash": "0x2674a53142ce37fbe1ff9dd9ccb4372e0408508a603773ab7608e344593dabc3",
      "transactionIndex": "0x50",
      "blockHash": "0xf1daad54b1a89a5b114631f1d4d71030e93a6aa27ccf9946ce8ef9cf9465dba6",
      "blockNumber": "0x898956",
      "gasUsed": "0x24188",
      "effectiveGasPrice": "0x1a5e191",
      "from": "0x3f9f3ef80cc1a53ba77a00b5ee66262ed2fea72d",
      "to": "0x6a2027682b9abfe77804a6941137af04b7d118e2",
      "contractAddress": null
    }
  ],
  "libraries": [],
  "pending": [],
  "returns": {},
  "timestamp": 1755550432,
  "chain": 11155111,
  "commit": null
}