{
  "transactions": [
    {
      "hash": "0xf69f72dbd6b892ee416bc30ba1d9ef02fddb5b2c23ac13d2a805c3f17a0627f3",
      "transactionType": "CALL",
      "contractName": null,
      "contractAddress": "0x661323fea336cd5222d836ad77623cd5227831ed",
      "function": "registerAsset(string)",
      "arguments": [
        "My Ikoyi Apartment"
      ],
      "transaction": {
        "from": "0x3f9f3ef80cc1a53ba77a00b5ee66262ed2fea72d",
        "to": "0x661323fea336cd5222d836ad77623cd5227831ed",
        "gas": "0x31d63",
        "value": "0x0",
        "input": "0x1ec04081000000000000000000000000000000000000000000000000000000000000002000000000000000000000000000000000000000000000000000000000000000124d7920496b6f79692041706172746d656e740000000000000000000000000000",
        "nonce": "0xd1",
        "chainId": "0xaa36a7"
      },
      "additionalContracts": [],
      "isFixedGasLimit": false
    },
    {
      "hash": "0x672d48441cdac73489311b9f8648f89d167c25e662879b8ede23f12855dc346d",
      "transactionType": "CALL",
      "contractName": null,
      "contractAddress": "0x661323fea336cd5222d836ad77623cd5227831ed",
      "function": "registerAsset(string)",
      "arguments": [
        "Tesla Model S Electric Vehicle"
      ],
      "transaction": {
        "from": "0x3f9f3ef80cc1a53ba77a00b5ee66262ed2fea72d",
        "to": "0x661323fea336cd5222d836ad77623cd5227831ed",
        "gas": "0x31e2a",
        "value": "0x0",
        "input": "0x1ec040810000000000000000000000000000000000000000000000000000000000000020000000000000000000000000000000000000000000000000000000000000001e5465736c61204d6f64656c205320456c6563747269632056656869636c650000",
        "nonce": "0xd2",
        "chainId": "0xaa36a7"
      },
      "additionalContracts": [],
      "isFixedGasLimit": false
    },
    {
      "hash": "0x67954846a98f8d390370cc87fd6614ba8115ac39249710b0866739e28f5a310a",
      "transactionType": "CALL",
      "contractName": null,
      "contractAddress": "0x661323fea336cd5222d836ad77623cd5227831ed",
      "function": "registerAsset(string)",
      "arguments": [
        "Rare Diamond"
      ],
      "transaction": {
        "from": "0x3f9f3ef80cc1a53ba77a00b5ee66262ed2fea72d",
        "to": "0x661323fea336cd5222d836ad77623cd5227831ed",
        "gas": "0x31d00",
        "value": "0x0",
        "input": "0x1ec040810000000000000000000000000000000000000000000000000000000000000020000000000000000000000000000000000000000000000000000000000000000c52617265204469616d6f6e640000000000000000000000000000000000000000",
        "nonce": "0xd3",
        "chainId": "0xaa36a7"
      },
      "additionalContracts": [],
      "isFixedGasLimit": false
    }
  ],
  "receipts": [
    {
      "status": "0x1",
      "cumulativeGasUsed": "0xa09530",
      "logs": [
        {
          "address": "0x661323fea336cd5222d836ad77623cd5227831ed",
          "topics": [
            "0x17bfbb947caca86ac77ea06397ced8c4f77a1a6c82a21b5a05a738ceddc1f660",
            "0x0000000000000000000000000000000000000000000000000000000000000007",
            "0x0000000000000000000000003f9f3ef80cc1a53ba77a00b5ee66262ed2fea72d"
          ],
          "data": "0x00000000000000000000000000000000000000000000000000000000000000400000000000000000000000000000000000000000000000000000000068a3c36c00000000000000000000000000000000000000000000000000000000000000124d7920496b6f79692041706172746d656e740000000000000000000000000000",
          "blockHash": "0xbc8f08f583f15307dce3cb804f72b35b0477c5584b5e76892850028011c8958a",
          "blockNumber": "0x898d60",
          "transactionHash": "0xf69f72dbd6b892ee416bc30ba1d9ef02fddb5b2c23ac13d2a805c3f17a0627f3",
          "transactionIndex": "0x66",
          "logIndex": "0xd6",
          "removed": false
        }
      ],
      "logsBloom": "0x00000200000000000000000000002000000000000000000000000000000000000000400000008000000000000000000000001000000000000000000000000000000020000000000000000000000000000000000000000000000000000000000000000000004000000000000000000000000000000000000000000000000000008000000000000000000000000000000000000000000000000000000000000000000000000000000000000400000000000000000000000000000000000000000000000000000800000000800000000000000000000000000000000100000000000000000000000000000000000000000000000000000000000000000000000000",
      "type": "0x2",
      "transactionHash": "0xf69f72dbd6b892ee416bc30ba1d9ef02fddb5b2c23ac13d2a805c3f17a0627f3",
      "transactionIndex": "0x66",
      "blockHash": "0xbc8f08f583f15307dce3cb804f72b35b0477c5584b5e76892850028011c8958a",
      "blockNumber": "0x898d60",
      "gasUsed": "0x2414c",
      "effectiveGasPrice": "0x29d663",
      "from": "0x3f9f3ef80cc1a53ba77a00b5ee66262ed2fea72d",
      "to": "0x661323fea336cd5222d836ad77623cd5227831ed",
      "contractAddress": null
    },
    {
      "status": "0x1",
      "cumulativeGasUsed": "0xa2d70c",
      "logs": [
        {
          "address": "0x661323fea336cd5222d836ad77623cd5227831ed",
          "topics": [
            "0x17bfbb947caca86ac77ea06397ced8c4f77a1a6c82a21b5a05a738ceddc1f660",
            "0x0000000000000000000000000000000000000000000000000000000000000008",
            "0x0000000000000000000000003f9f3ef80cc1a53ba77a00b5ee66262ed2fea72d"
          ],
          "data": "0x00000000000000000000000000000000000000000000000000000000000000400000000000000000000000000000000000000000000000000000000068a3c36c000000000000000000000000000000000000000000000000000000000000001e5465736c61204d6f64656c205320456c6563747269632056656869636c650000",
          "blockHash": "0xbc8f08f583f15307dce3cb804f72b35b0477c5584b5e76892850028011c8958a",
          "blockNumber": "0x898d60",
          "transactionHash": "0x672d48441cdac73489311b9f8648f89d167c25e662879b8ede23f12855dc346d",
          "transactionIndex": "0x67",
          "logIndex": "0xd7",
          "removed": false
        }
      ],
      "logsBloom": "0x00000200000000000000000000002000000000000000000000000000000000000000400000008000000000000000000000000000000080000000000000000000000000000000000000000000000000000000000000000000000000000000000000000000004000000000000000000000000000000000000000000000000000008080000000000000000000000000000000000000000000000000000000000000000000000000000000000400000000000000000000000000000000000000000040000000000800000000800000000000000000000000000000000000000000000000000000000000000000000000000000000000000000000000000000000000",
      "type": "0x2",
      "transactionHash": "0x672d48441cdac73489311b9f8648f89d167c25e662879b8ede23f12855dc346d",
      "transactionIndex": "0x67",
      "blockHash": "0xbc8f08f583f15307dce3cb804f72b35b0477c5584b5e76892850028011c8958a",
      "blockNumber": "0x898d60",
      "gasUsed": "0x241dc",
      "effectiveGasPrice": "0x29d663",
      "from": "0x3f9f3ef80cc1a53ba77a00b5ee66262ed2fea72d",
      "to": "0x661323fea336cd5222d836ad77623cd5227831ed",
      "contractAddress": null
    },
    {
      "status": "0x1",
      "cumulativeGasUsed": "0xa51810",
      "logs": [
        {
          "address": "0x661323fea336cd5222d836ad77623cd5227831ed",
          "topics": [
            "0x17bfbb947caca86ac77ea06397ced8c4f77a1a6c82a21b5a05a738ceddc1f660",
            "0x0000000000000000000000000000000000000000000000000000000000000009",
            "0x0000000000000000000000003f9f3ef80cc1a53ba77a00b5ee66262ed2fea72d"
          ],
          "data": "0x00000000000000000000000000000000000000000000000000000000000000400000000000000000000000000000000000000000000000000000000068a3c36c000000000000000000000000000000000000000000000000000000000000000c52617265204469616d6f6e640000000000000000000000000000000000000000",
          "blockHash": "0xbc8f08f583f15307dce3cb804f72b35b0477c5584b5e76892850028011c8958a",
          "blockNumber": "0x898d60",
          "transactionHash": "0x67954846a98f8d390370cc87fd6614ba8115ac39249710b0866739e28f5a310a",
          "transactionIndex": "0x68",
          "logIndex": "0xd8",
          "removed": false
        }
      ],
      "logsBloom": "0x00000200000000000000000000002000000000000000000000000000000000000000400000008000000000000000000000000000000000000000000000200000000000000000000000000000000000000000000000000000000000000000000000000000004000000000000000000000000000000000000000000000000000008000000000000000000000000000000000001000000000000000000000000000000000000000000000000400000000000000000000000000000000000000000000000000000800000000800000000000000000000000000000000000000000000000000000000000000000000000000000000000000000000000000000800000",
      "type": "0x2",
      "transactionHash": "0x67954846a98f8d390370cc87fd6614ba8115ac39249710b0866739e28f5a310a",
      "transactionIndex": "0x68",
      "blockHash": "0xbc8f08f583f15307dce3cb804f72b35b0477c5584b5e76892850028011c8958a",
      "blockNumber": "0x898d60",
      "gasUsed": "0x24104",
      "effectiveGasPrice": "0x29d663",
      "from": "0x3f9f3ef80cc1a53ba77a00b5ee66262ed2fea72d",
      "to": "0x661323fea336cd5222d836ad77623cd5227831ed",
      "contractAddress": null
    }
  ],
  "libraries": [],
  "pending": [],
  "returns": {},
  "timestamp": 1755562860,
  "chain": 11155111,
  "commit": "575a61d"
}