{
  "transactions": [
    {
      "hash": "0x0450c14831efd6ee46b24459942e3cb9bcd8f53ad59b2123e1acf2918e4e48f4",
      "transactionType": "CALL",
      "contractName": null,
      "contractAddress": "0x6a2027682b9abfe77804a6941137af04b7d118e2",
      "function": "registerAsset(string)",
      "arguments": [
        "My Ikoyi Apartment"
      ],
      "transaction": {
        "from": "0x3f9f3ef80cc1a53ba77a00b5ee66262ed2fea72d",
        "to": "0x6a2027682b9abfe77804a6941137af04b7d118e2",
        "gas": "0x31d63",
        "value": "0x0",
        "input": "0x1ec04081000000000000000000000000000000000000000000000000000000000000002000000000000000000000000000000000000000000000000000000000000000124d7920496b6f79692041706172746d656e740000000000000000000000000000",
        "nonce": "0xc0",
        "chainId": "0xaa36a7"
      },
      "additionalContracts": [],
      "isFixedGasLimit": false
    },
    {
      "hash": "0xc6d746fa302efc61731c52a2bf18801d59da469bb36aeb97df2794e1c73ce07c",
      "transactionType": "CALL",
      "contractName": null,
      "contractAddress": "0x6a2027682b9abfe77804a6941137af04b7d118e2",
      "function": "registerAsset(string)",
      "arguments": [
        "Tesla Model S Electric Vehicle"
      ],
      "transaction": {
        "from": "0x3f9f3ef80cc1a53ba77a00b5ee66262ed2fea72d",
        "to": "0x6a2027682b9abfe77804a6941137af04b7d118e2",
        "gas": "0x31e2a",
        "value": "0x0",
        "input": "0x1ec040810000000000000000000000000000000000000000000000000000000000000020000000000000000000000000000000000000000000000000000000000000001e5465736c61204d6f64656c205320456c6563747269632056656869636c650000",
        "nonce": "0xc1",
        "chainId": "0xaa36a7"
      },
      "additionalContracts": [],
      "isFixedGasLimit": false
    },
    {
      "hash": "0xd458aff4c4b399ff2bef856b3444a59493eff4c7595b9977ab380b5422e9db58",
      "transactionType": "CALL",
      "contractName": null,
      "contractAddress": "0x6a2027682b9abfe77804a6941137af04b7d118e2",
      "function": "registerAsset(string)",
      "arguments": [
        "Rare Diamond Collection"
      ],
      "transaction": {
        "from": "0x3f9f3ef80cc1a53ba77a00b5ee66262ed2fea72d",
        "to": "0x6a2027682b9abfe77804a6941137af04b7d118e2",
        "gas": "0x31db6",
        "value": "0x0",
        "input": "0x1ec040810000000000000000000000000000000000000000000000000000000000000020000000000000000000000000000000000000000000000000000000000000001752617265204469616d6f6e6420436f6c6c656374696f6e000000000000000000",
        "nonce": "0xc2",
        "chainId": "0xaa36a7"
      },
      "additionalContracts": [],
      "isFixedGasLimit": false
    }
  ],
  "receipts": [
    {
      "status": "0x1",
      "cumulativeGasUsed": "0xb2f946",
      "logs": [
        {
          "address": "0x6a2027682b9abfe77804a6941137af04b7d118e2",
          "topics": [
            "0x17bfbb947caca86ac77ea06397ced8c4f77a1a6c82a21b5a05a738ceddc1f660",
            "0x000000000000000000000000000000000000000000000000000000000000000d",
            "0x0000000000000000000000003f9f3ef80cc1a53ba77a00b5ee66262ed2fea72d"
          ],
          "data": "0x00000000000000000000000000000000000000000000000000000000000000400000000000000000000000000000000000000000000000000000000068a39ffc00000000000000000000000000000000000000000000000000000000000000124d7920496b6f79692041706172746d656e740000000000000000000000000000",
          "blockHash": "0x77a659d13f98778454705dbcf922e949ea8e74eb1578d3549a477b960b3e828f",
          "blockNumber": "0x898a6d",
          "transactionHash": "0x0450c14831efd6ee46b24459942e3cb9bcd8f53ad59b2123e1acf2918e4e48f4",
          "transactionIndex": "0x67",
          "logIndex": "0x83",
          "removed": false
        }
      ],
      "logsBloom": "0x00000200000000000040000000002000000000000000000000000000000000000000400000008000000000000000000000000000000000000000000000000000000000000000000000000000000000000002000000100000000000000000000000000000000000000000000000000000000000000000000000000000000000008000000000000000000000000000000000000000000000000000000000000000000000000000000000000000000000000000000000000000000000000000000000000000000800000000000000000000000000000000000000000000004000020000000000000000000000000000000000000000000800000000000000000000",
      "type": "0x2",
      "transactionHash": "0x0450c14831efd6ee46b24459942e3cb9bcd8f53ad59b2123e1acf2918e4e48f4",
      "transactionIndex": "0x67",
      "blockHash": "0x77a659d13f98778454705dbcf922e949ea8e74eb1578d3549a477b960b3e828f",
      "blockNumber": "0x898a6d",
      "gasUsed": "0x2414c",
      "effectiveGasPrice": "0x89a3de",
      "from": "0x3f9f3ef80cc1a53ba77a00b5ee66262ed2fea72d",
      "to": "0x6a2027682b9abfe77804a6941137af04b7d118e2",
      "contractAddress": null
    },
    {
      "status": "0x1",
      "cumulativeGasUsed": "0xb53b22",
      "logs": [
        {
          "address": "0x6a2027682b9abfe77804a6941137af04b7d118e2",
          "topics": [
            "0x17bfbb947caca86ac77ea06397ced8c4f77a1a6c82a21b5a05a738ceddc1f660",
            "0x000000000000000000000000000000000000000000000000000000000000000e",
            "0x0000000000000000000000003f9f3ef80cc1a53ba77a00b5ee66262ed2fea72d"
          ],
          "data": "0x00000000000000000000000000000000000000000000000000000000000000400000000000000000000000000000000000000000000000000000000068a39ffc000000000000000000000000000000000000000000000000000000000000001e5465736c61204d6f64656c205320456c6563747269632056656869636c650000",
          "blockHash": "0x77a659d13f98778454705dbcf922e949ea8e74eb1578d3549a477b960b3e828f",
          "blockNumber": "0x898a6d",
          "transactionHash": "0xc6d746fa302efc61731c52a2bf18801d59da469bb36aeb97df2794e1c73ce07c",
          "transactionIndex": "0x68",
          "logIndex": "0x84",
          "removed": false
        }
      ],
      "logsBloom": "0x00000200000000000000000000002000000000000000000000000000000000000000400000008000000000000000000000000000000000000000000000000000000000000000000800000000000000000000000000100000000000000000000000000000000000000000000000000000000000000000000000000000000000008000000000000000000000000000000008000000000000000000000000000000000000000000000000000000000000000000000000000020000000000000000000000000000800000000000000000000000000000000000000000000004000000000000000000000000000000000000000000000000800000000000000000000",
      "type": "0x2",
      "transactionHash": "0xc6d746fa302efc61731c52a2bf18801d59da469bb36aeb97df2794e1c73ce07c",
      "transactionIndex": "0x68",
      "blockHash": "0x77a659d13f98778454705dbcf922e949ea8e74eb1578d3549a477b960b3e828f",
      "blockNumber": "0x898a6d",
      "gasUsed": "0x241dc",
      "effectiveGasPrice": "0x89a3de",
      "from": "0x3f9f3ef80cc1a53ba77a00b5ee66262ed2fea72d",
      "to": "0x6a2027682b9abfe77804a6941137af04b7d118e2",
      "contractAddress": null
    },
    {
      "status": "0x1",
      "cumulativeGasUsed": "0xb77caa",
      "logs": [
        {
          "address": "0x6a2027682b9abfe77804a6941137af04b7d118e2",
          "topics": [
            "0x17bfbb947caca86ac77ea06397ced8c4f77a1a6c82a21b5a05a738ceddc1f660",
            "0x000000000000000000000000000000000000000000000000000000000000000f",
            "0x0000000000000000000000003f9f3ef80cc1a53ba77a00b5ee66262ed2fea72d"
          ],
          "data": "0x00000000000000000000000000000000000000000000000000000000000000400000000000000000000000000000000000000000000000000000000068a39ffc000000000000000000000000000000000000000000000000000000000000001752617265204469616d6f6e6420436f6c6c656374696f6e000000000000000000",
          "blockHash": "0x77a659d13f98778454705dbcf922e949ea8e74eb1578d3549a477b960b3e828f",
          "blockNumber": "0x898a6d",
          "transactionHash": "0xd458aff4c4b399ff2bef856b3444a59493eff4c7595b9977ab380b5422e9db58",
          "transactionIndex": "0x69",
          "logIndex": "0x85",
          "removed": false
        }
      ],
      "logsBloom": "0x00000200000000000000000000002000000000000000000000000000000000000000400000008000000000000000000000000000000000000000000000000000000000000000000000000000000000000000000000100000000000000002000000000000000000000000000000000000000000000000000000000000000000008000000000000800000000000000000000000000000000000000000000000000000000000000000000000000000000000000000000000000000000000000000000000000000800000000000000000000000000000000000000000000004000000000000200000000000000000000000000000000000800000000000000000000",
      "type": "0x2",
      "transactionHash": "0xd458aff4c4b399ff2bef856b3444a59493eff4c7595b9977ab380b5422e9db58",
      "transactionIndex": "0x69",
      "blockHash": "0x77a659d13f98778454705dbcf922e949ea8e74eb1578d3549a477b960b3e828f",
      "blockNumber": "0x898a6d",
      "gasUsed": "0x24188",
      "effectiveGasPrice": "0x89a3de",
      "from": "0x3f9f3ef80cc1a53ba77a00b5ee66262ed2fea72d",
      "to": "0x6a2027682b9abfe77804a6941137af04b7d118e2",
      "contractAddress": null
    }
  ],
  "libraries": [],
  "pending": [],
  "returns": {},
  "timestamp": 1755553789,
  "chain": 11155111,
  "commit": null
}