{
  "transactions": [
    {
      "hash": "0xc8715d8d9eb1dc60b1d46e97dba435ce1a55e31d6f6916d6646d55e062261c91",
      "transactionType": "CALL",
      "contractName": null,
      "contractAddress": "0x661323fea336cd5222d836ad77623cd5227831ed",
      "function": "registerAsset(string)",
      "arguments": [
        "My Ikoyi Apartment"
      ],
      "transaction": {
        "from": "0x3f9f3ef80cc1a53ba77a00b5ee66262ed2fea72d",
        "to": "0x661323fea336cd5222d836ad77623cd5227831ed",
        "gas": "0x31d63",
        "value": "0x0",
        "input": "0x1ec04081000000000000000000000000000000000000000000000000000000000000002000000000000000000000000000000000000000000000000000000000000000124d7920496b6f79692041706172746d656e740000000000000000000000000000",
        "nonce": "0xd4",
        "chainId": "0xaa36a7"
      },
      "additionalContracts": [],
      "isFixedGasLimit": false
    },
    {
      "hash": "0x8104b062dc8ec94c307128a55158ed06aa7d4c63836edb1e5e6e778e9562344d",
      "transactionType": "CALL",
      "contractName": null,
      "contractAddress": "0x661323fea336cd5222d836ad77623cd5227831ed",
      "function": "registerAsset(string)",
      "arguments": [
        "Tesla Model S Electric Vehicle"
      ],
      "transaction": {
        "from": "0x3f9f3ef80cc1a53ba77a00b5ee66262ed2fea72d",
        "to": "0x661323fea336cd5222d836ad77623cd5227831ed",
        "gas": "0x31e2a",
        "value": "0x0",
        "input": "0x1ec040810000000000000000000000000000000000000000000000000000000000000020000000000000000000000000000000000000000000000000000000000000001e5465736c61204d6f64656c205320456c6563747269632056656869636c650000",
        "nonce": "0xd5",
        "chainId": "0xaa36a7"
      },
      "additionalContracts": [],
      "isFixedGasLimit": false
    },
    {
      "hash": "0x205c3ceeef0d4b17a3186f6c6defbd15819bbf73c431f024be1c302c15e8b61e",
      "transactionType": "CALL",
      "contractName": null,
      "contractAddress": "0x661323fea336cd5222d836ad77623cd5227831ed",
      "function": "registerAsset(string)",
      "arguments": [
        "Rare Diamond"
      ],
      "transaction": {
        "from": "0x3f9f3ef80cc1a53ba77a00b5ee66262ed2fea72d",
        "to": "0x661323fea336cd5222d836ad77623cd5227831ed",
        "gas": "0x31d00",
        "value": "0x0",
        "input": "0x1ec040810000000000000000000000000000000000000000000000000000000000000020000000000000000000000000000000000000000000000000000000000000000c52617265204469616d6f6e640000000000000000000000000000000000000000",
        "nonce": "0xd6",
        "chainId": "0xaa36a7"
      },
      "additionalContracts": [],
      "isFixedGasLimit": false
    }
  ],
  "receipts": [
    {
      "status": "0x1",
      "cumulativeGasUsed": "0xa86da0",
      "logs": [
        {
          "address": "0x661323fea336cd5222d836ad77623cd5227831ed",
          "topics": [
            "0x17bfbb947caca86ac77ea06397ced8c4f77a1a6c82a21b5a05a738ceddc1f660",
            "0x000000000000000000000000000000000000000000000000000000000000000a",
            "0x0000000000000000000000003f9f3ef80cc1a53ba77a00b5ee66262ed2fea72d"
          ],
          "data": "0x00000000000000000000000000000000000000000000000000000000000000400000000000000000000000000000000000000000000000000000000068a3c68400000000000000000000000000000000000000000000000000000000000000124d7920496b6f79692041706172746d656e740000000000000000000000000000",
          "blockHash": "0xf76746e7ccc3d21288aa4b441a09e7f3799704fcae9ecf0becfdb17bf641d167",
          "blockNumber": "0x898da1",
          "transactionHash": "0xc8715d8d9eb1dc60b1d46e97dba435ce1a55e31d6f6916d6646d55e062261c91",
          "transactionIndex": "0x78",
          "logIndex": "0xf0",
          "removed": false
        }
      ],
      "logsBloom": "0x00000200000000000000000000002000000000000000000000000000000000000000400000008000000000000000000000000000040000000020000000000000000000000000000000000000000000000000000000000000000000000000000000000000004000000000000000000000000000000000000000000000000000008000000000000000010000000000000000000000000000000000000000000000000000000000000000000400000000000000000000000000000000000000000000000000000800000000800000000000000000000000000000000000000000000000000000000000000000000000000000000000000000000000000000000000",
      "type": "0x2",
      "transactionHash": "0xc8715d8d9eb1dc60b1d46e97dba435ce1a55e31d6f6916d6646d55e062261c91",
      "transactionIndex": "0x78",
      "blockHash": "0xf76746e7ccc3d21288aa4b441a09e7f3799704fcae9ecf0becfdb17bf641d167",
      "blockNumber": "0x898da1",
      "gasUsed": "0x2414c",
      "effectiveGasPrice": "0x2c7ca4",
      "from": "0x3f9f3ef80cc1a53ba77a00b5ee66262ed2fea72d",
      "to": "0x661323fea336cd5222d836ad77623cd5227831ed",
      "contractAddress": null
    },
    {
      "status": "0x1",
      "cumulativeGasUsed": "0xaaaf7c",
      "logs": [
        {
          "address": "0x661323fea336cd5222d836ad77623cd5227831ed",
          "topics": [
            "0x17bfbb947caca86ac77ea06397ced8c4f77a1a6c82a21b5a05a738ceddc1f660",
            "0x000000000000000000000000000000000000000000000000000000000000000b",
            "0x0000000000000000000000003f9f3ef80cc1a53ba77a00b5ee66262ed2fea72d"
          ],
          "data": "0x00000000000000000000000000000000000000000000000000000000000000400000000000000000000000000000000000000000000000000000000068a3c684000000000000000000000000000000000000000000000000000000000000001e5465736c61204d6f64656c205320456c6563747269632056656869636c650000",
          "blockHash": "0xf76746e7ccc3d21288aa4b441a09e7f3799704fcae9ecf0becfdb17bf641d167",
          "blockNumber": "0x898da1",
          "transactionHash": "0x8104b062dc8ec94c307128a55158ed06aa7d4c63836edb1e5e6e778e9562344d",
          "transactionIndex": "0x79",
          "logIndex": "0xf1",
          "removed": false
        }
      ],
      "logsBloom": "0x00000200000000000000004000002000000000000000000000000000000000000000400000008000000000000000000000000000000000000000000000000000000000000000000000000000000000000000000000000000000000000000000000000000004000000000000000000000000000000000000000000000000000008000000000000000000000000000000000000000000000000000000000000000000000000000000000000400000000000000000000000000000000000000000000000000000800000000800000000000002000000000000000000000000000000000000000000000000000000000000000000000000000040000000000000000",
      "type": "0x2",
      "transactionHash": "0x8104b062dc8ec94c307128a55158ed06aa7d4c63836edb1e5e6e778e9562344d",
      "transactionIndex": "0x79",
      "blockHash": "0xf76746e7ccc3d21288aa4b441a09e7f3799704fcae9ecf0becfdb17bf641d167",
      "blockNumber": "0x898da1",
      "gasUsed": "0x241dc",
      "effectiveGasPrice": "0x2c7ca4",
      "from": "0x3f9f3ef80cc1a53ba77a00b5ee66262ed2fea72d",
      "to": "0x661323fea336cd5222d836ad77623cd5227831ed",
      "contractAddress": null
    },
    {
      "status": "0x1",
      "cumulativeGasUsed": "0xacf080",
      "logs": [
        {
          "address": "0x661323fea336cd5222d836ad77623cd5227831ed",
          "topics": [
            "0x17bfbb947caca86ac77ea06397ced8c4f77a1a6c82a21b5a05a738ceddc1f660",
            "0x000000000000000000000000000000000000000000000000000000000000000c",
            "0x0000000000000000000000003f9f3ef80cc1a53ba77a00b5ee66262ed2fea72d"
          ],
          "data": "0x00000000000000000000000000000000000000000000000000000000000000400000000000000000000000000000000000000000000000000000000068a3c684000000000000000000000000000000000000000000000000000000000000000c52617265204469616d6f6e640000000000000000000000000000000000000000",
          "blockHash": "0xf76746e7ccc3d21288aa4b441a09e7f3799704fcae9ecf0becfdb17bf641d167",
          "blockNumber": "0x898da1",
          "transactionHash": "0x205c3ceeef0d4b17a3186f6c6defbd15819bbf73c431f024be1c302c15e8b61e",
          "transactionIndex": "0x7a",
          "logIndex": "0xf2",
          "removed": false
        }
      ],
      "logsBloom": "0x00000200000000000000000000002000000002000000000000000000000000000000400000008200000000000000000000000000000000000000000000000000000000000000000000000000000000000000000000000000000000000000000000000000004000000000000000000000000000000000000000000000000000008000000000000000000000000000000000000000000000000000000000000000000000000000000000000400000000000000000000000000000000000000000000000000000800000000800000000000000000000000000000000000000000200000000000000000000000000000000000000000000000000000000000000000",
      "type": "0x2",
      "transactionHash": "0x205c3ceeef0d4b17a3186f6c6defbd15819bbf73c431f024be1c302c15e8b61e",
      "transactionIndex": "0x7a",
      "blockHash": "0xf76746e7ccc3d21288aa4b441a09e7f3799704fcae9ecf0becfdb17bf641d167",
      "blockNumber": "0x898da1",
      "gasUsed": "0x24104",
      "effectiveGasPrice": "0x2c7ca4",
      "from": "0x3f9f3ef80cc1a53ba77a00b5ee66262ed2fea72d",
      "to": "0x661323fea336cd5222d836ad77623cd5227831ed",
      "contractAddress": null
    }
  ],
  "libraries": [],
  "pending": [],
  "returns": {},
  "timestamp": 1755563652,
  "chain": 11155111,
  "commit": "456ebc6"
}